:100000000C9446000C9465000C9465000C946500FB
:100010000C9465000C9465000C9465000C946500CC
:100020000C9465000C9465000C9465000C946500BC
:100030000C9465000C94DE000C9465000C94650033
:100040000C9465000C9465000C9465000C9465009C
:100050000C9465000C9465000C9465000C9465008C
:100060000C9465000C9465000C9465000C9465007C
:100070000C9465000C9465000C9465000C9465006C
:100080000C9465000C9465000C94650011241FBE4F
:10009000CFEFD0E4DEBFCDBF11E0A0E0B1E0E2E9F8
:1000A000F5E000E00BBF02C007900D92A231B1074E
:1000B000D9F721E0A2E1B1E001C01D92AF31B20752
:1000C000E1F70E9435020C94C7020C940000CF9314
:1000D000DF9300D01F92CDB7DEB789837B836A831D
:1000E00089818A3031F48A819B81BC018DE00E9434
:1000F000670080EC90E0FC018081882F90E08072A6
:100100009927892BB1F386EC90E02981FC012083AB
:1001100080E090E00F900F900F90DF91CF910895C5
:10012000CF93DF93CDB7DEB781E890E02BE0FC0101
:10013000208388E890E02DE730E0FC0131832083C4
:100140008FE690E022E0FC01208384E890E0FC014F
:100150001182108280910E0190910F01A0911001E7
:10016000B09111018093130190931401A093150194
:10017000B09316018FE590E02FE530E0F901208182
:100180002068FC0120830000DF91CF910895CF9378
:10019000DF93CDB7DEB781E890E0FC01108200006C
:1001A000DF91CF910895CF93DF93CDB7DEB781E094
:1001B000809312010000DF91CF9108951F920F925A
:1001C00000905F000F92112400905B000F922F931C
:1001D0003F934F935F936F937F938F939F93AF93CF
:1001E000BF93EF93FF93CF93DF93CDB7DEB78091AB
:1001F000130190911401A0911501B091160101977E
:10020000A109B1098093130190931401A0931501E2
:10021000B09316018091130190911401A0911501E2
:10022000B0911601892B8A2B8B2B91F40E94D3005D
:1002300080910E0190910F01A0911001B0911101D8
:100240008093130190931401A0931501B0931601AC
:100250000000DF91CF91FF91EF91BF91AF919F91FE
:100260008F917F916F915F914F913F912F910F905F
:1002700000925B000F9000925F000F901F90189506
:10028000CF93DF9300D000D0CDB7DEB769837A83F8
:100290008B839C8389819A81AB81BC8180930E0181
:1002A00090930F01A0931001B093110180910E0162
:1002B00090910F01A0911001B09111018093130151
:1002C00090931401A0931501B093160100000F90B4
:1002D0000F900F900F90DF91CF910895CF93DF9300
:1002E000CDB7DEB780911D0190911E01813091053F
:1002F00081F08130910530F08230910589F00397CB
:10030000B1F01CC081E090E090931E0180931D012C
:1003100015C082E090E090931E0180931D010EC0F5
:1003200083E090E090931E0180931D0107C081E05F
:1003300090E090931E0180931D01000080911D01AB
:1003400090911E018130910549F08130910590F026
:100350008230910539F0039749F00DC081E0809318
:10036000170109C082E08093170105C084E08093E3
:10037000170101C000000000DF91CF910895CF93D5
:10038000DF93CDB7DEB780911B0190911C018130C6
:10039000910569F08130910518F0029779F015C048
:1003A00081E090E090931C0180931B010EC082E0DD
:1003B00090E090931C0180931B0107C081E090E0C6
:1003C00090931C0180931B01000080911B01909170
:1003D0001C018130910531F08130910550F0029778
:1003E00021F008C01092180105C088E08093180120
:1003F00001C000000000DF91CF910895CF93DF93FB
:100400001F92CDB7DEB719828091190190911A0120
:10041000009719F0019741F00EC081E090E09093B1
:100420001A018093190107C081E090E090931A01AE
:100430008093190100008091190190911A01009791
:1004400049F0019741F49091180180911701892B8F
:10045000898301C0000085E290E02981FC012083AE
:1004600000000F90DF91CF910895CF93DF93CDB728
:10047000DEB72C970FB6F894DEBF0FBECDBF81E27A
:1004800090E0FC01108282E290E02FEFFC012083DB
:1004900084E290E02FEFFC01208385E290E0FC01F4
:1004A000108288EE93E0A0E0B0E089839A83AB836A
:1004B000BC8388EE93E0A0E0B0E08D839E83AF83A1
:1004C000B88788EE93E0A0E0B0E089879A87AB8791
:1004D000BC8789859A85AB85BC85BC01CD010E940E
:1004E00040010E94900010921E0110921D01109276
:1004F0001C0110921B0110921A011092190189819E
:100500009A81AB81BC81883E9340A105B10530F052
:100510000E946E0119821A821B821C828D819E812B
:10052000AF81B885883E9340A105B10530F00E94A7
:10053000BF011D821E821F8218860E94FE010000DC
:10054000809112018823E1F31092120129813A81EE
:100550004B815C8189859A85AB85BC85820F931F11
:10056000A41FB51F89839A83AB83BC832D813E81F1
:100570004F81588589859A85AB85BC85820F931FED
:10058000A41FB51F8D839E83AF83B887B8CFF8941F
:02059000FFCF9B
:1005920000000002000000006700000000000100EF
:0205A200000057
:00000001FF
