:100000000C9446000C9465000C9465000C946500FB
:100010000C9465000C9465000C9465000C946500CC
:100020000C9465000C9465000C9465000C946500BC
:100030000C9465000C94DE000C9465000C94650033
:100040000C9465000C9465000C9465000C9465009C
:100050000C9465000C9465000C9465000C9465008C
:100060000C9465000C9465000C9465000C9465007C
:100070000C9465000C9465000C9465000C9465006C
:100080000C9465000C9465000C94650011241FBE4F
:10009000CFEFD0E4DEBFCDBF11E0A0E0B1E0ECECEB
:1000A000F6E000E00BBF02C007900D92A231B1074D
:1000B000D9F721E0A2E1B1E001C01D92A232B2075E
:1000C000E1F70E94A8020C9464030C940000CF9303
:1000D000DF9300D01F92CDB7DEB789837B836A831D
:1000E00089818A3031F48A819B81BC018DE00E9434
:1000F000670080EC90E0FC018081882F90E08072A6
:100100009927892BB1F386EC90E02981FC012083AB
:1001100080E090E00F900F900F90DF91CF910895C5
:10012000CF93DF93CDB7DEB781E890E02BE0FC0101
:10013000208388E890E02DE730E0FC0131832083C4
:100140008FE690E022E0FC01208384E890E0FC014F
:100150001182108280910E0190910F01A0911001E7
:10016000B09111018093130190931401A093150194
:10017000B09316018FE590E02FE530E0F901208182
:100180002068FC0120830000DF91CF910895CF9378
:10019000DF93CDB7DEB781E890E0FC01108200006C
:1001A000DF91CF910895CF93DF93CDB7DEB781E094
:1001B000809312010000DF91CF9108951F920F925A
:1001C00000905F000F92112400905B000F922F931C
:1001D0003F934F935F936F937F938F939F93AF93CF
:1001E000BF93EF93FF93CF93DF93CDB7DEB78091AB
:1001F000130190911401A0911501B091160101977E
:10020000A109B1098093130190931401A0931501E2
:10021000B09316018091130190911401A0911501E2
:10022000B0911601892B8A2B8B2B91F40E94D3005D
:1002300080910E0190910F01A0911001B0911101D8
:100240008093130190931401A0931501B0931601AC
:100250000000DF91CF91FF91EF91BF91AF919F91FE
:100260008F917F916F915F914F913F912F910F905F
:1002700000925B000F9000925F000F901F90189506
:10028000CF93DF9300D000D0CDB7DEB769837A83F8
:100290008B839C8389819A81AB81BC8180930E0181
:1002A00090930F01A0931001B093110180910E0162
:1002B00090910F01A0911001B09111018093130151
:1002C00090931401A0931501B093160100000F90B4
:1002D0000F900F900F90DF91CF910895CF93DF9300
:1002E000CDB7DEB780912001909121018130910539
:1002F00081F08130910530F08230910589F00397CB
:10030000B1F01CC081E090E0909321018093200126
:1003100015C082E090E090932101809320010EC0EF
:1003200083E090E0909321018093200107C081E059
:1003300090E09093210180932001000080912001A2
:10034000909121018130910549F08130910590F023
:100350008230910539F0039749F00DC081E0809318
:10036000170109C082E08093170105C084E08093E3
:10037000170101C000000000DF91CF910895CF93D5
:10038000DF93CDB7DEB780911E0190911F018130C0
:10039000910569F08130910518F0029779F015C048
:1003A00081E090E090931F0180931E010EC082E0D7
:1003B00090E090931F0180931E0107C081E090E0C0
:1003C00090931F0180931E01000080911E01909167
:1003D0001F018130910531F08130910550F0029775
:1003E00021F008C01092180105C088E08093180120
:1003F00001C000000000DF91CF910895CF93DF93FB
:100400001F92CDB7DEB780E290E0FC01808180953D
:100410008470898380911C0190911D018130910528
:1004200081F08130910530F082309105D9F0039749
:1004300051F13AC083E090E090931D0180931C013C
:1004400033C08981882339F082E090E090931D01C8
:1004500080931C0129C083E090E090931D0180935C
:100460001C0122C08981882339F081E090E09093BB
:100470001D0180931C0118C083E090E090931D0142
:1004800080931C0111C08981882339F081E090E0BC
:1004900090931D0180931C0106C083E090E090932F
:1004A0001D0180931C01000080911C0190911D0191
:1004B0008130910531F08130910550F0029721F0A3
:1004C00008C01092190105C080E18093190101C094
:1004D000000000000F90DF91CF910895CF93DF933C
:1004E0001F92CDB7DEB7198280911A0190911B013E
:1004F000009719F0019741F00EC081E090E09093D1
:100500001B0180931A0107C081E090E090931B01CA
:1005100080931A01000080911A0190911B010097AD
:1005200061F0019759F49091180180911701982B6F
:1005300080911901892B898301C0000085E290E038
:100540002981FC01208300000F90DF91CF91089555
:10055000CF93DF93CDB7DEB760970FB6F894DEBFC9
:100560000FBECDBF81E290E0FC01108282E290E0FC
:100570002FEFFC01208384E290E02FEFFC01208329
:1005800085E290E0FC0110828CE291E0A0E0B0E016
:1005900089839A83AB83BC8388EE93E0A0E0B0E0CC
:1005A0008D839E83AF83B88782E090E0A0E0B0E0C7
:1005B00089879A87AB87BC8782E090E0A0E0B0E0B3
:1005C0008D879E87AF87B88B8D859E85AF85B889CF
:1005D000BC01CD010E9440010E94900010922101B7
:1005E0001092200110921F0110921E0110921D0105
:1005F00010921C0110921B0110921A0189819A819C
:10060000AB81BC818C329140A105B10530F00E94D4
:100610006E0119821A821B821C828D819E81AF819C
:10062000B885883E9340A105B10530F00E94BF0116
:100630001D821E821F82188689859A85AB85BC859E
:100640000297A105B10530F00E94FE0119861A86B5
:100650001B861C860E946E02000080911201882376
:10066000E1F31092120129813A814B815C818D85E1
:100670009E85AF85B889820F931FA41FB51F8983FC
:100680009A83AB83BC832D813E814F8158858D85B4
:100690009E85AF85B889820F931FA41FB51F8D83D8
:1006A0009E83AF83B88729853A854B855C858D8588
:1006B0009E85AF85B889820F931FA41FB51F8987B8
:0C06C0009A87AB87BC879ACFF894FFCFD5
:1006CC0000000002000000006700000000000100B4
:0206DC0000001C
:00000001FF
