:100000000C9446000C9465000C9465000C946500FB
:100010000C9465000C9465000C9465000C946500CC
:100020000C9465000C9465000C9465000C946500BC
:100030000C9465000C94DE000C9465000C94650033
:100040000C9465000C9465000C9465000C9465009C
:100050000C9465000C9465000C9465000C9465008C
:100060000C9465000C9465000C9465000C9465007C
:100070000C9465000C9465000C9465000C9465006C
:100080000C9465000C9465000C94650011241FBE4F
:10009000CFEFD0E4DEBFCDBF11E0A0E0B1E0E0E8FB
:1000A000F8E000E00BBF02C007900D92A631B10747
:1000B000D9F721E0A6E1B1E001C01D92A832B20754
:1000C000E1F70E9477030C943E040C940000CF9358
:1000D000DF9300D01F92CDB7DEB789837B836A831D
:1000E00089818A3031F48A819B81BC018DE00E9434
:1000F000670080EC90E0FC018081882F90E08072A6
:100100009927892BB1F386EC90E02981FC012083AB
:1001100080E090E00F900F900F90DF91CF910895C5
:10012000CF93DF93CDB7DEB781E890E02BE0FC0101
:10013000208388E890E02DE730E0FC0131832083C4
:100140008FE690E022E0FC01208384E890E0FC014F
:100150001182108280910E0190910F01A0911001E7
:10016000B09111018093170190931801A093190188
:10017000B0931A018FE590E02FE530E0F90120817E
:100180002068FC0120830000DF91CF910895CF9378
:10019000DF93CDB7DEB781E890E0FC01108200006C
:1001A000DF91CF910895CF93DF93CDB7DEB781E094
:1001B000809316010000DF91CF9108951F920F9256
:1001C00000905F000F92112400905B000F922F931C
:1001D0003F934F935F936F937F938F939F93AF93CF
:1001E000BF93EF93FF93CF93DF93CDB7DEB78091AB
:1001F000170190911801A0911901B0911A0101976E
:10020000A109B1098093170190931801A0931901D6
:10021000B0931A018091170190911801A0911901D2
:10022000B0911A01892B8A2B8B2B91F40E94D30059
:1002300080910E0190910F01A0911001B0911101D8
:100240008093170190931801A0931901B0931A019C
:100250000000DF91CF91FF91EF91BF91AF919F91FE
:100260008F917F916F915F914F913F912F910F905F
:1002700000925B000F9000925F000F901F90189506
:10028000CF93DF9300D000D0CDB7DEB769837A83F8
:100290008B839C8389819A81AB81BC8180930E0181
:1002A00090930F01A0931001B093110180910E0162
:1002B00090910F01A0911001B0911101809317014D
:1002C00090931801A0931901B0931A0100000F90A8
:1002D0000F900F900F90DF91CF910895CF93DF9300
:1002E000CDB7DEB78091260190912701813091052D
:1002F00081F08130910530F08230910589F00397CB
:10030000B1F01CC081E090E090932701809326011A
:1003100015C082E090E090932701809326010EC0E3
:1003200083E090E0909327018093260107C081E04D
:1003300090E0909327018093260100008091260190
:10034000909127018130910549F08130910590F01D
:100350008230910539F0039749F00DC081E0809318
:100360001B0109C082E080931B0105C084E08093DB
:100370001B0101C000000000DF91CF910895CF93D1
:10038000DF93CDB7DEB780912201909123018130B8
:10039000910569F08130910518F0029779F015C048
:1003A00081E090E090932301809322010EC082E0CF
:1003B00090E0909323018093220107C081E090E0B8
:1003C000909323018093220100008091220190915B
:1003D00023018130910531F08130910550F0029771
:1003E00021F008C010921C0105C088E080931C0118
:1003F00001C000000000DF91CF910895CF93DF93FB
:100400001F92CDB7DEB780E290E0FC01808180953D
:100410008370898380912401909125018230910518
:1004200089F18330910528F4009751F0019779F014
:100430005CC083309105B9F1049709F445C055C0FB
:1004400081E090E090932501809324014EC0898142
:10045000813039F482E090E090932501809324016B
:1004600044C08981823039F483E090E09093250183
:10047000809324013AC081E090E09093250180931D
:10048000240133C08981882339F481E090E090937E
:1004900025018093240129C084E090E090932501F8
:1004A0008093240122C08981882339F481E090E07F
:1004B000909325018093240118C084E090E09093EC
:1004C00025018093240111C08981882339F481E0BA
:1004D00090E0909325018093240106C084E090E091
:1004E0009093250180932401000080912401909134
:1004F00025018230910539F08330910508F443C01D
:10050000039709F145C08091120190911301A091C8
:100510001401B09115010A97A105B105B0F58091BC
:10052000120190911301A0911401B091150101964F
:10053000A11DB11D8093120190931301A09314018A
:10054000B093150122C08091120190911301A091E6
:100550001401B09115010297A105B105C0F0809179
:10056000120190911301A0911401B091150101970E
:10057000A109B1098093120190931301A093140172
:10058000B093150104C0000003C0000001C00000CA
:1005900000000F90DF91CF910895CF93DF931F92CA
:1005A000CDB7DEB780E290E0FC0180818095847059
:1005B000898380912001909121018130910581F002
:1005C0008130910530F082309105D9F0039751F1D7
:1005D0003AC083E090E0909321018093200133C0E2
:1005E0008981882339F082E090E090932101809303
:1005F000200129C083E090E09093210180932001A5
:1006000022C08981882339F081E090E09093210114
:100610008093200118C083E090E0909321018093A3
:10062000200111C08981882339F081E090E0909306
:1006300021018093200106C083E090E09093210186
:100640008093200100008091200190912101813050
:10065000910531F08130910550F0029721F008C0EA
:1006600010921D0105C080E180931D0101C00000B2
:1006700000000F90DF91CF910895CF93DF931F92E9
:10068000CDB7DEB7198280911E0190911F010097AE
:1006900019F0019741F00EC081E090E090931F01A6
:1006A00080931E0107C081E090E090931F0180932A
:1006B0001E01000080911E0190911F01009761F0C2
:1006C000019759F490911C0180911B01982B809106
:1006D0001D01892B898301C0000085E290E02981FA
:1006E000FC01208300000F90DF91CF910895CF93FC
:1006F000DF93CDB7DEB760970FB6F894DEBF0FBEBD
:10070000CDBF81E290E0FC01108282E290E02FEF09
:10071000FC01208384E290E02FEFFC01208385E23E
:1007200090E0FC0110828CE291E0A0E0B0E08983CF
:100730009A83AB83BC8388EE93E0A0E0B0E08D8326
:100740009E83AF83B88781E090E0A0E0B0E0898726
:100750009A87AB87BC8781E090E0A0E0B0E08D870E
:100760009E87AF87B88B8D859E85AF85B889BC0184
:10077000CD010E9440010E9490001092270110922A
:100780002601109223011092220110922101109251
:10079000200110921F0110921E0189819A81AB8164
:1007A000BC818C329140A105B10530F00E946E01F0
:1007B00019821A821B821C828D819E81AF81B8852D
:1007C000883E9340A105B10530F00E94BF011D8213
:1007D0001E821F8218868091120190911301A091B0
:1007E0001401B091150129853A854B855C85281740
:1007F00039074A075B0730F00E94CD0219861A8636
:100800001B861C860E94FE010E943D030000809111
:1008100016018823E1F31092160129813A814B8158
:100820005C818D859E85AF85B889820F931FA41F3B
:10083000B51F89839A83AB83BC832D813E814F8111
:1008400058858D859E85AF85B889820F931FA41F1B
:10085000B51F8D839E83AF83B88729853A854B85E5
:100860005C858D859E85AF85B889820F931FA41FF7
:10087000B51F89879A87AB87BC878FCFF894FFCF46
:1008800000000002000000006700000000000100FE
:0608900000000100000061
:00000001FF
